:020000040800F2
:10000000801F0120BD020008F5C50008957C00088E
:10001000C5C40008E11F0008D91401080000000051
:1000200000000000000000000000000035F500089E
:100030004D2F00080000000089C800087D0F01084E
:10004000D7020008D7020008D7020008D70200082C
:10005000D7020008D7020008D7020008D70200081C
:10006000D7020008D7020008D7020008D70200080C
:10007000D7020008D7020008D7020008852E000822
:10008000912E0008D7020008D7020008D702000806
:10009000D7020008D7020008D7020008D7020008DC
:1000A000D7020008D7020008D7020008D7020008CC
:1000B000D7020008D7020008D7020008D7020008BC
:1000C000D7020008D7020008D7020008D7020008AC
:1000D000D7020008D7020008D7020008D70200089C
:1000E000D7020008D7020008D7020008D70200088C
:1000F000D7020008D7020008D7020008D70200087C
:10010000D702000839DA0008D702000815E700080E
:10011000D7020008D7020008D7020008D70200085B
:10012000D70200089D2E0008D7020008D702000859
:10013000D7020008D7020008D7020008D70200083B
:10014000D7020008D7020008D7020008D70200082B
:10015000D70200083D2F0008D7020008D702000888
:10016000D7020008D7020008D7020008D70200080B
:10017000D7020008D7020008BD2D000800000000CB
:10018000D7020008D702000800F002F800F086F855
:1001900014A696E8000CB244B344DA4501D100F04D
:1001A0007DF8BAE80F000FA696E83000A5EB04052D
:1001B00004EB0607AAEB0704A7F101074FEA1515A0
:1001C0004FEA3414A4F10104AC4201D300F066F804
:1001D00013F0010F18BFFB1A43F0010300F001F800
:1001E000DBE718474878010068780100103A24BF1F
:1001F00078C878C1FAD8520724BF30C830C144BF8C
:1002000004680C6070470000704700000023002461
:1002100000250026103A28BF78C1FBD8520728BF16
:1002200030C148BF0B607047662915F08582692987
:1002300000F0A881642900F0A581752900F0A28151
:100240006F2900F03982782900F060820368DB09A9
:1002500028BF41F08001632901F06780732901F014
:100260006C80E32901F07780002070471FB515F0FE
:1002700056FA9DE8030000F095FD01F079F90400BD
:100280000020002115F0BEF9401C60600020002114
:1002900015F0A2F9E0601FBD10B510BD01F0B6FC6D
:1002A0001146FFF7E3FF14F0FDF901F0D4FC03B4AD
:1002B000FFF7F2FF03BC01F005FD0000094880478D
:1002C00009480047FEE7FEE7FEE7FEE7FEE7FEE738
:1002D000FEE7FEE7FEE7FEE704480549054A064B50
:1002E00070470000311001088901000880190120C1
:1002F000801F0120801B0120801B012070B5064655
:1003000000F030FD056806F10B0020F00704B44250
:100310009CBF002070BD2B466A68BAB11068A0422D
:1003200010D304F1080188423CBF5068586007D3DD
:100330005168101941601168091B01605860146010
:10034000101D70BD13465268002AE7D12146284689
:1003500000F014FD0028DED170BD70B50446051F05
:1003600000F000FD0068002C14BF446870BD002C34
:1003700018BFAC423CBF20466468F8D301680A1835
:10038000AA4218BF456003D12A680546114401609E
:1003900028684119A1421CBF6C6070BD616869602A
:1003A00021680844286070BD53EA020C00F069809F
:1003B0002DE9F04B4FF00006002B1FBFB3FA83F579
:1003C00003FA05F424FA05F65E4012BF1643B2FAAA
:1003D00082F502FA05F4C5F120051EBF22FA05FCDC
:1003E00044EA0C04203556EA044C4FEA144418BF82
:1003F000641C4FF000084FF00009904271EB030CB1
:1004000039D3002919BFB1FA81F701FA07F6B0FA1A
:1004100080F700FA07F6C7F120071EBF20FA07FC95
:1004200046EA0C062037B6FBF4FCA7EB0507103FA5
:1004300007F01F0BCBF120062CFA06F60CFA0BFB8B
:1004400044BFB3460026202FA4BF5E464FF0000BEA
:100450005BEA060C08BF4FF0010B19EB0B0948EBE8
:100460000608ABFB027C06FB02CC0BFB03CCC01BDB
:1004700071EB0C01C1E70B46024641464846BDE818
:10048000F08B13B5084318BF4FF0FF300146AFF3B0
:100490000080BDE81C4070470FB41CB5074B06AA8E
:1004A0007B4469460090059800F01DFF00206946D6
:1004B00000F02CFF1CBC5DF814FB0000690E00006E
:1004C00070B5044685690068C10601D5302600E094
:1004D0002026C00707D070BDD4E9012130469047DF
:1004E000206A401C20626D1EF6D570BD70B50446B2
:1004F00085690078C00707D170BDD4E901212020AB
:100500009047206A401C20626D1EF6D570BD0968B8
:100510004A0501D540B27047C905FCD500B2704705
:1005200009684A0501D5C0B27047C905FCD580B23B
:10053000704770B50C460546012A05D0287880061C
:1005400000D5EA69002302E0012305E05B1C934229
:1005500002D2E05C0028F9D1A869E618C01AA861A7
:10056000286A184428622846FFF7AAFF04E0D5E964
:10057000012114F8010B9047B442F8D32846FFF745
:10058000B5FF70BD2DE9F0410646002410687529BD
:10059000314616A510D0FFF7BAFF002802DA404214
:1005A00013A507E031688A0701D512A502E04907C3
:1005B00004D511A5012401E0FFF7B2FF00210A22B2
:1005C00006F1240709E0B0FBF2FCB0FBF2F302FBFA
:1005D0001C00303078541846491C0028F3D12346BB
:1005E0002A463046BDE8F04100F011BC0000000092
:1005F0002D0000002B000000200000002DE9FF5F0F
:1006000015468A460446DFF8AC80F8440027D8E94E
:1006100000103E46CDE9001010E03AF816106A4688
:1006200002A800F021FF411C07D02178890603D5DC
:10063000E269391891420DD80744761C207880066B
:1006400002D5E069B84205DDAE42E6DB3AF81600B5
:100650000028E2D1A069C01BA0612046FFF730FF4F
:10066000D8E90010CDE90010002017E03AF8181082
:100670006A4602A800F0F8FEB0F1FF3F81460BD0B9
:1006800000250DF1080B05E0D4E901211BF8050058
:1006900090476D1C4D45F7D308F10100B0428046EC
:1006A000E4DB206A384420622046FFF71FFFBDE8E4
:1006B000FF9F00002E51010070B5044621461068CE
:1006C000FFF72EFF002104F1240505E000F00702EA
:1006D0003032C0086A54491C0028F7D12068002332
:1006E00008A2050708D500F02000084304D0E069FF
:1006F000012305A2401EE0612046BDE8704000F0E5
:1007000086BB0000000000003000000070B5044609
:100710000D4621461068FFF703FF2188090502D521
:100720000F4A7A4402E00E4A7A440E32002104F164
:10073000240305E000F00F060009965D5E54491C95
:100740000028F7D120780023000704D5702D02D0AF
:1007500009B1022311322046BDE8704000F057BBBA
:100760001E5001002DE9F05F894604464FF0000A53
:10077000DFF874B1FB44C0F820A02046E168884748
:10078000002874D0252806D0D4E901219047206A9A
:10079000401C2062F1E700265F462046E16888475A
:1007A0002028054607DB312D05D2781910F8200CDA
:1007B00008B10643F1E7B00701D526F00406C4F8F6
:1007C0001CA00027C4F818A02A2D09D0284614F030
:1007D000FBFE38B304EB8708303DC8F8185019E029
:1007E00059F8041B204604EB87029161E1688847B1
:1007F000012F054618D1E069002820DA26F02006EE
:100800001DE0D8F8180000EB800005EB4000303800
:10081000C8F818002046E1688847054614F0D4FE61
:100820000028EED1012F0AD02E2D08D12046E168F4
:1008300088477F1C0546022F46F02006C4DBA069CE
:10084000002803DA404246F00106A061F00701D01B
:1008500026F010066C2D0BD0682D09D04C2D39D008
:100860006A2D35D0742D35D07A2D33D016E038E08E
:10087000E1682F4620468847B842054609D16C2FCB
:1008800026D04FF48060E16806432046884705463D
:1008900004E06C2F1AD04FF4807006430DB3A5F11D
:1008A0004100192802D8203546F400664A462946F8
:1008B000204626604E46FFF7B7FC80B101280BD0DA
:1008C000F61D26F0070000F1080956E74020E4E78E
:1008D0008020D8E70020D6E706F104094DE7284636
:1008E00052E7206ABDE8F09FF44F01000FB400B555
:1008F0008DB010A9099000910B904FF0FF300A9035
:1009000000200C90064878440690064878446A46D1
:1009100007900F9909A800F03FFD0DB05DF814FB9A
:10092000AF0A0000C70A00002DE9FF5F1D464FF027
:10093000FF3B91464FF000085F46D5E90146A969A3
:1009400001987F1C8847296A824688470028F6D18B
:10095000BAF1FF3F0CD0002E24F4C06419DD60060C
:1009600014D5BAF12B0F09D0BAF12D0F0ED103E037
:10097000584604B0BDE8F09F44F48064A96901982A
:100980007F1C8847761E8246002E02DDBAF1300FAA
:1009900003D0B9F1000F26D032E0A969761E019884
:1009A0007F1C44F400748847002E824605DDBAF1AE
:1009B000780F06D0BAF1580F03D0B9F1000F10D05C
:1009C0001EE0B9F1000F02D0B9F1100F18D1A969DA
:1009D000761E01987F1C24F40074884782461020FC
:1009E00002E0082000E00A20814609E0A96908FB2E
:1009F0000908761E01987F1C44F4007488478246DB
:100A0000002E05DD4946504600F0B1FC0028EDDA25
:100A1000E96901988847A00502D46FF00100A8E7B2
:100A2000E00725D1600613D5600502D5C8F10000A6
:100A300000E0404629680A1D2A600968220501D5A0
:100A4000087015E0220701D5088011E008600FE06A
:100A50002868011D29600068210502D580F8008002
:100A600006E0210702D5A0F8008001E0C0F8008070
:100A700038467EE770B5064600F078F9046805460A
:100A800030460A22002100F0B7FC2C6070BD000047
:100A9000014A00F00DBD000000000020401ECAB257
:100AA00010F8011F8A4202D00029F9D100207047B6
:100AB00030B505460B462A4613F8014B12F8010BD8
:100AC00008B1A042F8D01CB1002802D06D1CF1E79B
:100AD000284630BD40EA010310B59B070FD1042A18
:100AE0000DD310C808C9121F9C42F8D020BA19BAF9
:100AF000884201D9012010BD4FF0FF3010BD1AB15E
:100B0000D30703D0521C07E0002010BD10F8013BB2
:100B100011F8014B1B1B07D110F8013B11F8014BD9
:100B20001B1B01D1921EF1D1184610BD10B5431CFC
:100B300002E010F8011B71B18107FAD14FF00132C8
:100B400002C88C1A8C4314EAC211F9D0C01A0A06E2
:100B500003D0C01E10BDC01A10BD0A0401D0801EF3
:100B600010BD0902FCD0401E10BD032A40F23080A7
:100B700010F0030C00F0158011F8013BBCF1020FDE
:100B8000624498BF11F801CB00F8013B38BF11F85F
:100B9000013BA2F1040298BF00F801CB38BF00F876
:100BA000013B11F0030300F0A584083AC0F008806F
:100BB00051F8043B083A51F804CBA0E80810F5E7D7
:100BC000121D5CBF51F8043B40F8043BAFF30080BA
:100BD000D20724BF11F8013B11F801CB48BF11F82F
:100BE000012B24BF00F8013B00F801CB48BF00F8FF
:100BF000012B70474FF000020429C0F0128010F062
:100C0000030C00F01B80CCF1040CBCF1020F18BFE8
:100C100000F8012BA8BF20F8022BA1EB0C0100F07B
:100C20000DB85FEAC17C24BF00F8012B00F8012B4E
:100C300048BF00F8012B70474FF0000200B5134683
:100C400094469646203922BFA0E80C50A0E80C50EC
:100C5000B1F12001BFF4F7AF090728BFA0E80C509D
:100C600048BF0CC05DF804EB890028BF40F8042B96
:100C700008BF704748BF20F8022B11F0804F18BF03
:100C800000F8012B704710B5044610F0030F08BFA1
:100C900011F0030F40F015804FF0013E121FC0F21B
:100CA0000E8051F8043BA3EB0E0C2CEA030C1CEA5B
:100CB000CE1C08BF40F8043BF0D0A1F1040102F1C2
:100CC0000402521E08DB11F8013B00F8013B002B27
:100CD000F7D11146FFF78EFF204610BD000000003F
:100CE00030B44FF0013C50F8042B51F8043BCCFADF
:100CF00052F4D51A20D1FCB950F8042B51F8043B1A
:100D0000CCFA52F4D51A17D1B4B950F8042B51F8D3
:100D1000043BCCFA52F4D51A0ED16CB950F8042B1E
:100D200051F8043BCCFA52F4D51A05D1002CDAD094
:100D300030BC4FF00000704729BAB1FA81F111F0D0
:100D40001801D1F120008440F2D1CA40CB4012F00A
:100D5000FF0213F0FF0330BCD01A70477047704792
:100D60007047000000487047C800002000487047E6
:100D7000C0000020704770477047704738B5044680
:100D80000A4600206946AFF30080002808BF38BD3E
:100D900002460099204600F0EFFB012038BD0120FB
:100DA00000F00EBFF8B5AFF30080054600200C46FA
:100DB0000C2000BF0646A819A0420DD9324669464C
:100DC0000020AFF30080070008BF00F0F9FE009894
:100DD000A04218BF0546C419FFF7C4FF05600746C7
:100DE000F01D20F007004619284600F00AF8B4422A
:100DF00008BFF8BDA21B31463868BDE8F84000F0D6
:100E0000BBBB00210160416070470C2070472DE999
:100E1000F0470D4699469246044600F124080168C1
:100E2000880604D5E06921F01001216000E001206E
:100E3000A84201DD471B00E00027A1697A1902EBF7
:100E40000900081AA0612078C00602D42046FFF7E6
:100E500037FB002608E0D4E901211AF80600904784
:100E6000206A401C761C20624E45F4DB2078C006C8
:100E70000AD52046FFF724FB06E0D4E90121302003
:100E80009047206A401C2062381EA7F10107F4DC5D
:100E900007E0D4E9012118F805009047206A401CBA
:100EA0002062281EA5F10105F3DC2046FFF71EFB9A
:100EB0002078000602D50220BDE8F0870120FBE77C
:100EC0002DE9FF4F0C461E464FF0FF378BB0D2E99D
:100ED0000001DDF860800A908A46C1F30A5505B921
:100EE0003D46002108464FF00000BAF1000F00F423
:100EF000400005DA00EB80004FF4400101EA5000A9
:100F00004FEA9059B9F1010F00DDB9460A9850EA4D
:100F10004A000ED044F61050A5F2FF3545432F1479
:100F2000B8F1000F1ED07542291E1EDDC9F1000266
:100F30001CE0B8F1010F4FF0000001D0302103E0B8
:100F4000F24305E02154401CB042FBDB3046002256
:100F5000002121540B99C1F80880C1E900200FB08D
:100F6000BDE8F08FBD1B6D1CDEE74A4600DA694222
:100F700006A800F0B3FD06AB93E8070003AB83E8D7
:100F8000070050460A9913F03EFF8DE80700A0F5D0
:100F900000501F3800900398002D0ADD42F21F0117
:100FA0004A460844002303A90390684614F0A8F9B0
:100FB00009E0A0F500504A461F38002303A903901A
:100FC000684614F0B2F98DE807000004000C03D065
:100FD0004FF0FF30410800E01046B8F1000F03D099
:100FE0000022009215461EE0751E05D400F0DEFAC0
:100FF000303262556D1EF9D5B3460122084302D046
:1010000000227F1C04E02078302801D100227F1EBE
:10101000002A099784D01DE0112D07DA00F0C6FAE6
:10102000303262556D1C50EA0102F5D1084302D0FE
:101030000098C8B10EE00021681E05E0235C625CE8
:1010400063542254401E491C8142F7DBAB46A81B67
:10105000401E0990002004F80B000B98099AC0F874
:101060000880C0E9002B7AE711264FF0000857E707
:101070002DE9F04F88460446D21D22F0070191B0B9
:10108000D1E90001CDE90A0114F086FA02460B9875
:10109000C00F01D02D2007E02068810701D52B204B
:1010A00002E0202101EAC000032A099001D0072AAA
:1010B00005DB03464146204600F0C6FA0BE12078E6
:1010C000800601D5E06900E00620B8F1650F814691
:1010D00006D0B8F1660F18D0B8F1670F70D131E0C3
:1010E0000020B9F1110F009001DB112301E009F19B
:1010F00001030AAA01A90CA8FFF7E2FEDDE90C70C2
:10110000002609F10105834647E001204B46009087
:101110004FF000470AAA01A90CA8FFF7D1FEDDE9AC
:101120000DB00C995D46002610B909F101000D18AB
:10113000B9EB050003D4C0F1FF3609F10105A5EBB9
:1011400009002BE0B9F1010F01DA4FF0010900208D
:10115000B9F1110F0090484601DD112300E003466C
:101160000AAA01A90CA8FFF7ABFEDDE90C704D46F9
:1011700000268346207800070AD4AB4500DA5D4696
:1011800001A8012D04DD411911F8011C302907D0F7
:101190004F4502DA17F1040F04DA012082460FE00E
:1011A0006D1EEEE7002F02DCED1B3E4403E0781CD1
:1011B000A84200DD7D1CB81B00F1010A4FF000477A
:1011C0002078000703D4AA4501DB4FF0FF3A002145
:1011D000B7F1004F0DF143088DF8431024D00220E1
:1011E0002B23002F01DA7F422D230A21021EA0F1BA
:1011F000010000DC5FB197FBF1FC97FBF1F201FB12
:101200001C7C17460CF1300C08F801CDEEE7A8F174
:10121000010003702188090501D5452100E0652101
:10122000A0F1010800F8011C09980FA9A1EB08071B
:10123000FF1D00B10120411901EBEA70A16938449A
:10124000081A401EA0612078C00602D42046FFF78D
:1012500037F9099828B1D4E901219047206A401C48
:1012600020622078C00622D52046FFF729F91EE02B
:10127000002E04DBB34502DD01A8805D00E03020D4
:10128000D4E901219047206A401C2062761CAAF113
:1012900001005FEA000A0AD100F06AF9C06801683B
:1012A000405CD4E901219047206A401C2062281E3E
:1012B000A5F10105DCDC07E0D4E9012118F8010BF8
:1012C0009047206A401C2062381EA7F10107F3DC1A
:1012D0002046FFF70BF9032011B041E601694A1CD3
:1012E00002610878704700B58FB0CDE90131002167
:1012F000059105497944CDE9031011466846FFF789
:1013000031FA0FB000BD0000E5FFFFFF0A6802F8E8
:10131000010B0A60704710B5436913B1AFF3008049
:1013200001E0FFF706F9012010BD127800F1240159
:101330000A7000224A700122EDE711684FF0FF3277
:10134000E9E710B5436913B1AFF3008001E0FFF79F
:1013500055F9012010BD128800F124018284002279
:10136000C2840122EDE711684FF0FF32E9E73A2825
:1013700000D2303820F02002412A01D3A2F13700F8
:10138000884201D34FF0FF307047000002681144DB
:101390001378016018467047D1600549794451615E
:1013A00004497944116200211161114600F08CB9A1
:1013B000EDFFFFFF91020000426842B1016811F8A1
:1013C000013B23B1521EC0E90012184670470121AB
:1013D000C160881E704742685AB1C368016843B94A
:1013E00083688B4205D0491E521CC0E900120020C0
:1013F00070474FF0FF3070472DE9F04791460F4698
:1014000080460446002614F8015B2DB100F0A8F8D0
:101410000068405DC007F6D12B2D02D02D2D18D0CD
:10142000641E4A463946204600F008FB27B1396859
:10143000A14201D1C7F800804FF0020471050BD51D
:101440004042002803DDFFF791FC0460A007BDE8DF
:10145000F08746F48066E4E70028F8DAFFF786FCB8
:1014600004606FF00040F2E72DE9F04116460C46AB
:10147000054600F075F8036893F80101012807D0CC
:10148000FF2C12D8185D80B101202C70BDE8F081CE
:10149000D3F807013246214603F20713C71828463E
:1014A000BC46BDE8F041002360474FF0FF30EDE758
:1014B0002DE9F04115460E46040002D12C6804B90E
:1014C0000BA4204600F093FB0444207870B127461B
:1014D0003146384600F07BFB0444207810B10020F0
:1014E00004F8010B38462C60BDE8F0810027F9E7CD
:1014F0000000000010B5203AC0F00B80B1E8185091
:10150000A0E81850B1E81850A0E81850203ABFF4ED
:10151000F5AF5FEA027C24BFB1E81850A0E818508C
:1015200044BF18C918C0BDE810405FEA827C24BFE0
:1015300051F8043B40F8043B08BF7047D20728BF6E
:1015400031F8023B48BF11F8012B28BF20F8023BBD
:1015500048BF00F8012B704700487047C0000020CA
:1015600010B500F005F8001D10BD00BF9940010046
:1015700000487047E0000020034640688C46002881
:1015800018BF88423CBF03464068F8D31868184427
:10159000884207D00CF1030020F00700001D411A1B
:1015A000521A0146081D0A60FEF7D7BE30B5B0F1E9
:1015B0000A0271F100034FEA900E4EEA817EB0EB11
:1015C0000E0061EB91014FEA101E4EEA017E10EB16
:1015D0000E0041EB11114FEA102E4EEA016E10EB96
:1015E0000E0041EB11214FEA104E4EEA014E10EB76
:1015F0000E0041EB1141401841F100014FEAD000CB
:1016000040EA41704FEAD1014FEA810444EA907404
:1016100010EB800544EB01046D1944EB0404521BEC
:10162000A3414FF0000348BF0A3200D530BD401C33
:1016300041F1000130BD10B50446FFF791FF00688D
:10164000005D00F0010010BD2DE9F0411F46044689
:1016500003260168072A01F4006004DB08B116A51F
:1016600005E016A503E008B115A500E015A521F0D9
:1016700010002060A069C01EA0610FB1401EA061D3
:101680002046FEF71DFF4FB1D4E9012138469047AF
:10169000206A401C2062C01C206206E0206AFAE733
:1016A000D4E9012115F8010B9047761EF8D22046A7
:1016B000FEF71CFFBDE8F0814E414E006E616E00EA
:1016C000494E4600696E66002DE9F34F4FF0000A5F
:1016D0000C4656468DB001200C9001F10C000B9089
:1016E00062690B9801219047051E2DD0252D2CD025
:1016F000216A8847C0B162690B9801219047216A2D
:1017000088470028F7D16269411E0B98904700E096
:10171000761CA1690D988847216A88470028F7D16F
:10172000E1690D988847DBE7A1690D988847A842D1
:10173000074601D1761CD3E7E1690D9888477F1CE5
:1017400002D1BAF1000F6FD06BE162690B980027EC
:101750003D46394690472A2804D162690B980121F9
:1017600090470125DFF8D08262690B9801219047EC
:10177000A0F130010A290AD24745E5DC07EB8701D1
:1017800000EB4107303FDFD445F01005ECE7E906F8
:1017900001D46FF000476C280AD04C2814D0682878
:1017A00015D06A280DD074281CD07A281AD01DE0D4
:1017B00062690B98012190476C2802D045F004051E
:1017C00014E045F002050DE045F020050AE06269ED
:1017D0000B9801219047682802D045F0080505E0E4
:1017E00045F4006562690B9801219047C4E90157EF
:1017F00065283DD019DC58287AD00CDC452837D034
:1018000004DC252826D041289ED131E046282FD05F
:10181000472899D12CE05B2877D0612828D063280D
:101820007CD0642823D15AE0F6E06F2848D008DC49
:1018300066281DD067281BD0692821D06E2816D1B4
:1018400027E0702845D0732868D0752847D07828BD
:101850000DD14DE0A1690D988847252805463FF434
:1018600069AFE1690D9888476D1C3FF46AAFD8E015
:101870000D9923466A466FF00100AFF30080C5E082
:1018800045F0400023464FF000026060A80736D4C0
:101890003EE0E8077FF447AF2068011D2160006843
:1018A000290501D506701BE7290701D5068017E732
:1018B000A90703D5F117C0E9006111E706600FE73A
:1018C00045F0400023464FF008026060A80716D498
:1018D0001EE040F60E0125EA0100606016E045F0CA
:1018E000400023464FF00A026060A80707D40FE0CB
:1018F00045F040006060A80708D5234610220D99E6
:101900006FF00100AFF3008080E007E01022234673
:101910000D996FF00100FFF707F877E04FF000092D
:1019200063284F46C8464B46CB4602D05B2806D0BC
:1019300038E0E80601D40120A060012732E06269A6
:10194000D4F80CB00B98012190475E2807D14FF0D6
:10195000010949466269D4F80CB00B989047216997
:1019600039B900210A4603AB43F82120491C082954
:10197000FADBD8B3216949B308F1010862690B9811
:10198000012190475D28F4D1B9F1000F09D0002062
:1019900003A951F82020D24341F82020401C0828F8
:1019A000F7DB03AB2069002820794FEA40701ED096
:1019B0005B462246CDF80080CDE901970D990028BD
:1019C0006FF0010020DAAFF300801FE0C11703AA17
:1019D00000EBD1614B1121F01F0102EB8302411A90
:1019E00013680120884003431360C7E719E00D998D
:1019F000224600286FF00100009702DAAFF3008062
:101A000004E0AFF3008001E0AFF3008000280ADAC1
:101A1000401C06D10C9820B14FF0FF300FB0BDE84C
:101A2000F08F5046FAE7E90701D10AF1010A0644AE
:101A300000200C9054E60000CCCCCC0C2DE9F05FDB
:101A4000824615468B4600270AF10104B946007804
:101A5000302801D09DB113E014F8010B012778283C
:101A600003D0582801D045B10AE00DB1102D07D19F
:101A7000002714F8010B102502E0082500E00A25D4
:101A80000026B0460EE005FB080005FB06F1012725
:101A90001FFA80F801EB1046B6F5803F00D3B94637
:101AA00014F8010B2946FFF762FC0028EBDABBF1C2
:101AB000000F05D00FB1641E00E05446CBF8004083
:101AC000B9F1000F06D0FFF751F902210160C81EDD
:101AD000BDE8F09F48EA0640FAE700002DE9F0472C
:101AE000814616468AB0354878440DC88DE80D0009
:101AF00032487844801C03AC0DC884E80D0041F6E0
:101B00009B300844372190FBF1F290FBF1F5A5F1F1
:101B1000800501FB12041B3C02D56442012000E059
:101B20000020DFF898A080460027FA44AAF1BE0AF8
:101B30000EE0E0070AD03246684607EB4701012372
:101B40000AEB810113F0F1FB8DE8070064107F1CA4
:101B5000002CEED1194F7F44AE3F19E0E80715D0B5
:101B600007EB04100DF1180A90E80E008AE80E0049
:101B7000C068F04201D1981908903246012306A9A5
:101B800003A813F0D2FB03AB83E807006D10641CBD
:101B9000002DE3D14FF0010332466946B8F1000F42
:101BA00003A802D013F0ACFB01E013F0BEFBC9E9BF
:101BB0000001C9F808200AB0BDE8F087103D010017
:101BC00010B500F057F8BDE8104000F04DB830B542
:101BD00003461D781DB10A4603E0AC4201D1181A34
:101BE00030BD12F8014B002CF7D15B1CF1E730B58A
:101BF00003461D783DB10A4612F8014B1CB1AC42B8
:101C0000FAD15B1CF5E7181A30BD70477546FFF72F
:101C1000A3FCAE4605006946534620F00700854602
:101C200018B020B5FEF758FBBDE820404FF0000685
:101C30004FF000074FF000084FF0000BAC46ACE847
:101C4000C009ACE8C009ACE8C009ACE8C00921F0A3
:101C500007018D46704710B50446AFF3008020465B
:101C6000BDE81040FEF723BB002801D000F02AB8E1
:101C70007047000010B5012805D0002103A000F036
:101C800027F8012010BD09A1F8E700005349475289
:101C9000544D454D3A204F7574206F66206865613C
:101CA00070206D656D6F7279000000003A20486504
:101CB0006170206D656D6F727920636F72727570DF
:101CC0007465640001491820ABBEFEE726000200DF
:101CD00070B505460C460A2000E06D1C00F011F8B6
:101CE00035B128780028F8D102E0641C00F009F82A
:101CF00014B120780028F8D1BDE870400A20AFF375
:101D0000008008B569468DF800000320ABBE08BD11
:101D10000CF088BA014641F2F040C2F2010004F032
:101D200007BE000080B541F2F040C2F2010004F0AD
:101D300011FE043818BF012080BD000010B541F22B
:101D4000F04442F60040C2F20104C4F20100002156
:101D5000C4E900012046C4E90211C4E90411A161EB
:101D600000F01CF8204604F05BFF00281CBF012097
:101D700010BD41F2F040C2F201004FF4006104F0E6
:101D800075FC002818BF012010BD000081B00120A3
:101D90008DF803009DF8030001B070472DE9F04F66
:101DA00085B0002743F630010097C4F202014A696A
:101DB000044642F400624A614A6940F6000502F4B2
:101DC00000620092009A00970A68C4F2020542F489
:101DD00080020A600A686E4602F480020092009A4D
:101DE00000970A6842F004020A600A6802F00402DE
:101DF0000092009A00970A6842F008020A60096897
:101E000001F008000090009802200190012002904B
:101E1000032003900C2004904FF4F85000902846C3
:101E2000314603F0E7FE0420009005F5806031465E
:101E30004FF0040903F0DEFE31200E21002204F0F1
:101E40004FF8312004F03AF840F2802546F2584627
:101E5000C2F200054FF000604FF4403BC4F20206AE
:101E60004FF4806C4FF480514FF4804220234FF4A4
:101E700000084FF4001AC5E908B94FF00309C5E995
:101E800000602846C5E90A98C5F830A0C5E9027780
:101E9000C5E904C1C5E906232564AC6303F082FBF0
:101EA000284603F0A7FC40F2E025C2F20005042119
:101EB000C5E9091906F14801402029604FF0006189
:101EC000C5E901104FF4806028614FF480506861CB
:101ED0004FF48040A8612020E8612846C5F820B072
:101EE000C5E90B8AEF60E563AC6303F05BFB284652
:101EF00003F080FC3B200F21002203F0F1FF3B2088
:101F000003F0DCFF45200F21002203F0E9FF45200C
:101F100003F0D4FF05B0BDE8F08F000080B582B0BB
:101F20009C4613460A46014641F2F040C2F20100C7
:101F3000CDF800C004F0FAFF002818BF012002B05D
:101F400080BD00007047000080B582B09C461346FB
:101F50000A46014641F2F040C2F20100CDF800C04D
:101F600005F004F9002818BF012002B080BD000070
:101F700080B513460A46014641F2F040C2F2010024
:101F800005F010FA002818BF012080BD0CF040B900
:101F9000002808BF7047F0B581B040F20045044604
:101FA000C4F20205461E002703E000BF0137BC4211
:101FB00012D028462021012203F0F2FE642003F013
:101FC0001DFD28462021002203F0EAFEBE42EDD985
:101FD000642003F013FDE9E701B0BDE8F04070476D
:101FE000FEE7000010B540F20044C4F202042046AF
:101FF0002021012203F0D4FE322003F0FFFC204612
:1020000020210022BDE8104003F0CABE002808BF0E
:1020100070472DE9F04140F200480446C4F202083E
:102020004E08471E002502E00135AC4212D0404662
:102030002021012203F0B4FE304603F0DFFC4046CD
:102040002021002203F0ACFEAF42EDD9304603F070
:10205000D5FCE9E7BDE8F041704700002DE9F04FFD
:102060008DB040F2282BC2F2000B9BF80B00012828
:1020700040F09C8440F22110C2F2000001789BF8ED
:102080000F00002900F05B84002840F058840127ED
:1020900000260FF620120020DC214FF6E0734FF6E9
:1020A000FF78CDE900670DF011FA41F20817C2F28E
:1020B000000700BF0025B4B237F81520A8B22146AA
:1020C0000CF0E6FD0135F02DF6D10136802E07F536
:1020D000F077EFD1DBF8180046F2D1020130CBF8EF
:1020E000180002270024C0F601020A200A214FF638
:1020F000FF73CDE900470DF0E9F9A8F11F0085B2A3
:1021000046F2B5024FF00108C0F601020A208A210A
:102110002B46CDE900480DF0D9F99BF806000028C0
:1021200000F0F8839BF80400002840F0F3839BF84C
:102130000500002840F0EE8303F038FECBF82000C5
:10214000012700240FF684020020F0212B4603957E
:10215000CDE900470DF0BAF904F13C00002685B244
:1021600006F1140080B229461F22B7B20CF090FD90
:10217000C72F06F10106F3D3A0B201344F28EBD3E9
:1021800001244FF01F080FF66002282046214FF669
:10219000FF73CDE900840DF099F905F01FFE0028CA
:1021A00000F0548141F20810C2F20000F0218022B8
:1021B00006F0DCF940F288160546C2F201060FF679
:1021C000380130462A46FEF767F900274FF4FC63D2
:1021D0000020FA213246002D08BF4FF47843CDE9A4
:1021E00000740DF073F903F0E1FD04900FF618028E
:1021F00028205A214FF6FF73CDE900840DF066F9CF
:1022000007F16E0080B25A210022BCB20CF040FDF2
:102210009F2C07F10107F3D3002400BF04F16E00E7
:1022200080B25B210022A5B20CF032FD9F2D04F19B
:102230000104F3D3002400BF04F16E0080B25C21DE
:102240000022A5B20CF024FD9F2D04F10104F3D36C
:10225000002400BF04F16E0080B25D210022A5B20F
:102260000CF016FD9F2D04F10104F3D3002400BFF0
:1022700004F16E0080B25E210022A5B20CF008FDD0
:102280009F2D04F10104F3D3002400BF04F16E007C
:1022900080B25F210022A5B20CF0FAFC9F2D04F160
:1022A0000104F3D3002400BF04F16E0080B260216A
:1022B0000022A5B20CF0ECFC9F2D04F10104F3D335
:1022C000002400BF04F16E0080B261210022A5B29B
:1022D0000CF0DEFC9F2D04F10104F3D3002400BFB9
:1022E00004F16E0080B262210022A5B20CF0D0FC95
:1022F0009F2D04F10104F3D3002400BF04F16E000C
:1023000080B263210022A5B20CF0C2FC9F2D04F123
:102310000104F3D39BF8080040F288160FF2F46131
:102320000FF2F862C2F20106002808BF0A460FF257
:10233000FC613046FEF7B0F801251F2728206E21EA
:1023400032464FF6FF73CDE900750DF0BFF803F08C
:102350002DFD064605F042FD00284FF0000800F074
:10236000A18005F09FFC002800F0CA81002500BF75
:1023700005F13C00002784B207F1140080B2214629
:102380004FF47842BEB20CF083FCC72E07F1010770
:10239000F2D3A8B201354F28EAD345F615420227F9
:1023A0004FF47845C0F601021E2046214FF6FF7318
:1023B000CDE900570DF08AF805F074FC40F288145E
:1023C000C2F2010445F68A710246C0F601012046B8
:1023D000FEF762F801262D20642122464FF6FF7396
:1023E000CDE900560DF072F846F2BE11C0F60101BB
:1023F00020464246FEF750F82D20782122464FF61F
:10240000FF73CDE900560DF061F80320C821FFF7F6
:10241000FDFD40F6B83003F0F1FA41F20816002550
:10242000C2F200064FF001080027ACB236F81720C0
:10243000B8B221460CF02CFC0137F02FF6D1013553
:10244000802D06F5F076EFD160E200BF00254FF059
:10245000010800BF05F13C00002684B206F114001B
:1024600080B221464FF47842B7B20CF011FCC72F6E
:1024700006F10106F2D3A8B201352728EAD345F6C2
:102480003B7201274FF47846C0F60102282046210E
:102490004FF6FF73CDE900670DF018F8FFF7A2FDC6
:1024A00034E200BF47F22F57002425E040F288179E
:1024B000C2F2010746F27A113846C0F60101FDF773
:1024C000EBFF00204FF48C713A464FF61F03CDE925
:1024D00000650CF0FBFF03F069FC064647F22F573E
:1024E00008F101080AF0D2F9052003F087FA05F097
:1024F00075FC00287FF435AF03F058FC0499401AAE
:10250000B8423FF62EAF05F073FC05F0F1FB8146B3
:1025100005F0C8FB824605F0D3FB844200F0AF8093
:102520008346002800F092800BEB8B004AF2D831F2
:102530004843440C002500BF05F16E0080B25A21CB
:102540004FF4FC620CF0A4FB0135A8B2A042F3D317
:10255000002500BF05F16E0080B25B214FF4FC62E4
:102560000CF096FB0135A8B2A042F3D3002500BFC2
:1025700005F16E0080B25C214FF4FC620CF088FB28
:102580000135A8B2A042F3D3002500BF05F16E00CB
:1025900080B25D214FF4FC620CF07AFB0135A8B2E9
:1025A000A042F3D3002500BF05F16E0080B25E218A
:1025B0004FF4FC620CF06CFB0135A8B2A042F3D3DF
:1025C000002500BF05F16E0080B25F214FF4FC6270
:1025D0000CF05EFB0135A8B2A042F3D3002500BF8A
:1025E00005F16E0080B260214FF4FC620CF050FBEC
:1025F0000135A8B2A042F3D3002500BF05F16E005B
:1026000080B261214FF4FC620CF042FB0135A8B2AC
:10261000A042F3D3002500BF05F16E0080B2622115
:102620004FF4FC620CF034FB0135A8B2A042F3D3A6
:10263000002500BF05F16E0080B263214FF4FC62FB
:102640000CF026FB0135A8B2A042F3D340F2881467
:10265000C2F2010445F68A412046C0F601015A46FD
:10266000FDF71AFF40F213105A2122464FF6FF736E
:1026700001251F24CDE900450CF028FF5C4603F03E
:1026800095FB801B40F2282B3328C2F2000BFFF48D
:1026900027AF05F001FB40F28816C2F201060246A0
:1026A0003046E5A1FDF7F8FE00204FF48271324676
:1026B00040F2FF730027CDE900750CF007FF3046AC
:1026C000E0A14A465346FDF7E7FE039B00204FF486
:1026D000917132460026CDE900750CF0F7FE05F049
:1026E00007FB45F680620628C0F601023FF6DEAE23
:1026F00045F61401C0F6010151F82020D6E600BFCE
:1027000005F06CFB00283FF431AE03F04FFBDBF823
:102710002080824605F0CEFA40F25009C2F200094C
:102720000027C9F8000000BF07F13C00002486B272
:1027300004F1140080B231464FF4FC62A5B20CF0F3
:10274000A7FAC72D04F10104F2D3B8B201374F281C
:10275000EAD302204FF4FC6745F62242CDE900702F
:10276000C0F601021E2046210023AAEB08064FF006
:1027700000080CF0ABFE40F28815D9F80020C2F238
:10278000010546F2DE11C0F601012846FDF784FE80
:1027900001242D2064212A460023CDE900740CF089
:1027A00095FE46F29F11C0F6010128463246FDF71C
:1027B00073FE2D2078212A460023CDE900740CF009
:1027C00085FED9F8002045F6886105AEC0F6010106
:1027D0003046FDF761FE45F66961C0F601013046FD
:1027E00010F010FDFFF7FEFB8BF8074003F0DEFA58
:1027F000CBF81C009BF80200002847D045F6EA52AF
:10280000039BC0F6010200204FF49671CDE90084CD
:102810000CF05CFE47F69000C0F60100D0E9001213
:10282000296081686A60C268A9600169EA604269DA
:10283000296181696A61C269A961016AEA61426AC2
:102840002962816A6A62C26AA962016BEA62426BAA
:10285000C5E90C1290F83A10008F85F83A102887D5
:102860002846FEF763F982B240F2B050C2F201008E
:1028700029464FF4967304F0FDFFABF809408BF83E
:102880000F4003F093FACBF850003DE046F2F5120A
:10289000039BC0F6010200204FF49671CDE900843D
:1028A0000CF014FE47F6CC00C0F60100016800F100
:1028B000200B0391016B071D049103999BE8000F06
:1028C0008CCFD0E90464D0E906CE85E88E0005F10E
:1028D0002001808E81E8000F049940F2282BA88601
:1028E0002846C5E90464C5E906CEC2F2000B296397
:1028F000FEF71CF982B240F2B050C2F20100294644
:102900004FF4967304F0B6FF4FF001080020002446
:102910008BF8060045F63D42C0F601020020DC219E
:102920004FF4FC63CDE900480CF0D0FD40F22110DB
:10293000C2F20000047000F05BFA9BF80F00A8B32D
:1029400003F034FADBF85010401AB0F5FA7F2DD9B5
:102950009BF8090000218BF80F1070B19BF80A005A
:1029600058B901208BF80A0045F66960C0F60100ED
:102970000CF0E2FD0020ABF809004FF47A7003F090
:102980003DF841F208160025C2F200060027ACB25D
:1029900036F81720B8B221460CF07AF90137F02F3B
:1029A000F6D10135802D06F5F076EFD10DB0BDE8FA
:1029B000F08F00BF50726F63657373696E67206E2E
:1029C0006577206672616D652E2E2E0053617669E3
:1029D0006E6720696D61676520746F2053442063C2
:1029E0006172642E2E2E0000534156494E472050EE
:1029F000484F544F2E2E2E00537461727420736111
:102A000076653A202564000050726F6772657373B3
:102A10003A20000046617446730000004469726504
:102A200063742028444D4129000000004D6F646507
:102A30003A2025730000000044656275673A20253E
:102A40007300000053746174653A20256420457258
:102A5000723A2025640000002DE9F04182B040F276
:102A60002826C2F20006B07850B107F083FC002897
:102A700000F0848002B0BDE8F04106F0FBB900BF71
:102A80003078002876D003F091F9F16B401A47F2C4
:102A9000315188426ED300270A204FF48771DC221F
:102AA0000A2300970CF03EF945F6CC54C0F6010419
:102AB0004FF001080A204FF4877122464FF6E07369
:102AC000CDE900780CF002FD40F28815C2F2010554
:102AD00045F6FB31C0F6010128462246FDF7DCFC35
:102AE0002846FEF723F882B240F2B050C2F201004D
:102AF00029464FF4967304F0BDFE142002F07EFFC9
:102B000006F05CF898B30A204FF48771DC220A23A0
:102B100086F8028000970CF005F946F22E04C0F604
:102B200001040A204FF4877122464FF6E073CDE985
:102B300000780CF0CBFC40F28815C2F2010545F696
:102B4000FB31C0F6010128462246FDF7A5FC2846C8
:102B5000FDF7ECFF82B240F2B050C2F2010029460C
:102B60004FF4967304F086FE142002F047FF03F042
:102B70001DF9F06302B0BDE8F08100BF00270A2014
:102B80004FF48771DC220A2300970CF0CBF845F64E
:102B90005B54C0F601044FF001080A204FF487711E
:102BA00022464FF6E073CDE900780CF08FFC40F23E
:102BB0008815C2F2010545F6FB31C0F60101284631
:102BC0002246FDF769FC2846FDF7B0FF82B240F2CD
:102BD000B050C2F2010029464FF4967304F04AFE49
:102BE000142002F00BFFB77005F0E8FF70B10A2067
:102BF0004FF48771DC220A2386F8028000970CF0DC
:102C000091F846F25304C0F601040BE00A204FF499
:102C10008771DC220A2300970CF084F845F6E374F0
:102C2000C0F601040A204FF4877122464FF6E07384
:102C3000CDE900780CF04AFC40F28815C2F201059B
:102C400045F6FB31C0F6010128462246FDF724FC7B
:102C50002846FDF76BFF82B240F2B050C2F201008D
:102C600029464FF4967304F005FE142002B0BDE827
:102C7000F04102F0C3BE0000806B816B496D0229F8
:102C80001CBF012180F8251001F0B2BF10B5846B84
:102C9000A36AA06B01680A6863B1A36ADB0717D156
:102CA00012F4002214D0C968E26A01EBC2010022CA
:102CB00016E000BF100319D40868000318D4E06AB6
:102CC000D4E90C2303EB80000861A26210E000BF8E
:102CD0000A6812030CD40969E26A01EBC2010122FD
:102CE00002F092F9A06A0138A06201E0606BC8604E
:102CF000A06A216B884218BF10BD2068C16841F0EE
:102D00000101C1600068800744BF012084F82500EC
:102D100010BD00002DE9F04182B0002243F63003DF
:102D20000192C4F202031E68884646F480011960CD
:102D30001968054601F480000190019840F2484668
:102D400046F22840C2F20106C4F202004FF00071C0
:102D500086E8070006F10C004FF480634FF48054BE
:102D60004FF400579CC04FF4003006F1200C0421B2
:102D700003238CE80B003046F261C6E90B2202F017
:102D800011FC304602F036FD39200021002203F00C
:102D9000A7F8392003F092F840F22010C2F20000A8
:102DA00006640830B06330682821C5F205018160EF
:102DB000C560C0F8048002B0BDE8F08110B540F2F3
:102DC0002014C2F2000404F1080001F015FFA0680D
:102DD0008168C9071CBF012141618168C90658BFCC
:102DE00010BD1021416120780130207010BD00001D
:102DF00040F24840C2F20100D0F800C046F20C4058
:102E0000C4F2020000F14C018C4510D846F20800D3
:102E1000C4F2020000F1B0018C4503D900F58060D6
:102E200005E000BF00F150018C4588BF043080B53B
:102E30004FF474610160DCF8000041F2081220F0E8
:102E40000100CCF800002820C5F20500CCF80800ED
:102E5000C2F200024FF4F040CCF80C20CCF8040091
:102E6000DCF80000022140F0010E40F22010C2F216
:102E7000000008304FF4F043CCF800E0BDE880409B
:102E800002F036B840F2A840C2F2010002F0D0BB16
:102E900040F20850C2F2010002F0CABBB0B540F2E5
:102EA0004844C2F2010446F204452046C4F2020539
:102EB00002F0BEFB206805F15401884216D928684B
:102EC000000558BFB0BD40F22010C2F20000012141
:102ED000417005F108034FF40060186040F22010C3
:102EE000C2F20000416801314160B0BD46F2000409
:102EF000C4F2020404F15802214604F1B8039042DE
:102F000088BF0431984288BF04F5806109680905CB
:102F100000D4B0BD40F2201CC2F2000C0121984246
:102F20008CF8011002D92B1DD5E700BF04F108036E
:102F3000904288BF04F10C03CDE7000041F2F0405D
:102F4000C2F20100C06B02F073BB000070470000CA
:102F5000B0B540F2B055C2F2010546F6A1410446B3
:102F6000C0F6010128460722C82304F083FC20464E
:102F7000FDF7DCFD82B2284621464FF4967304F03B
:102F800079FC45F60441C0F601012846022264237B
:102F900004F070FC1420BDE8B04002F02FBD00002A
:102FA000B0B582B0044600250A204FF48771DC22B8
:102FB0000A2300950BF0B6FE4FF0010C0A204FF4E7
:102FC000877122464FF6E073CDE9005C0CF07EFA83
:102FD00040F28815C2F2010545F6FB31C0F6010149
:102FE00028462246FDF758FA2846FDF79FFD82B293
:102FF00040F2B050C2F2010029464FF4967304F03B
:1030000039FC142002B0BDE8B04002F0F7BC00006B
:10301000F0B583B040F22825C2F20005E87A08B185
:1030200003B0F0BD00204FF6FF7700240BF0B0FE98
:1030300046F226120226C0F601020A200A214FF6A5
:10304000FF73CDE900460CF041FA43A20A20322179
:103050004FF6FF73CDE900460CF038FA287846F2B7
:103060002402002828783EA1C0F6010208BF0A46C3
:103070004FF4FC6300284FF05A004FF0320108BFB4
:103080004FF47843CDE900460CF020FA38A20A202C
:103090005A214FF6FF73CDE900460CF017FA36A21D
:1030A0000A2078214FF6FF73CDE900460CF00EFAA6
:1030B000012633A20A2096214FF4FC63CDE9004695
:1030C0000CF004FA287830B3A7F11F0083B230A2C5
:1030D0000A20AF21CDE900460CF0F8F931A20A2010
:1030E000C32140F2FF73CDE900460CF0EFF9A87858
:1030F0000127002530B12FA20A20D7214FF4FC630D
:1031000005E000BF2FA20A20D7214FF47843CDE974
:1031100000570CF0DBF930A20A20EB214FF4FC63DE
:10312000CDE900460CF0D2F945F66472C0F6010212
:103130000A20FF214FF6FF73CDE900460CF0C6F9D7
:1031400029A20A204FF48C714FF4FC63CDE90046AC
:103150000CF0BCF903B0F0BD576946693A20000095
:103160004E6F7420436F6E6E65637465640000007B
:1031700046726F6E743A0000536964653A0000004D
:10318000534420436172643A2052656164790000BF
:103190005369676E616C3A205570646174696E673B
:1031A0002E2E2E0049503A205570646174696E6766
:1031B0002E2E2E004D5154543A20436F6E6E65638F
:1031C000746564004D5154543A20446973636F6EC2
:1031D0006E6563746564000043616D6572613A20D9
:1031E000526561647900000053797374656D2052F3
:1031F0006561647900000000F0B5A1B040F2681785
:10320000C2F200073878002872D002F0CFFD00F13A
:10321000640501AC02F0CAFDA84207D278682146D5
:103220000122012304F00EFA0028F3D040F6C0205A
:10323000C2F201004FF40061FDF7FEFC40F2B05510
:10324000C2F2010546F2AC21C0F601012846062271
:10325000642304F00FFBCEA1284628224FF4967376
:1032600004F008FB45F60441C0F60101284602229D
:10327000642304F0FFFA0A2002F0C0FB46F2795002
:1032800046F26D51C0F60100C0F6010141F28832EC
:1032900001F012F9002851D040F6C025C2F2010514
:1032A0002846FDF743FC4FF680717F26084208BF91
:1032B00086B2204629463246FDF7E5FC0020A0559F
:1032C000BEA12046FDF7F4FB002800F01F8140F26C
:1032D000B054C2F2010446F2AC21C0F6010120460E
:1032E0000622642304F0C6FAC2A12046192238E05F
:1032F00040F2B054C2F2010446F2AC21C0F6010122
:1033000020460622642304F0B5FA46F2AB71C0F6FB
:103310000101204617224FF4967304F0ABFA45F6EC
:103320000441C0F6010120460222642304F0A2FAFF
:103330000A2002F063FB002021B0F0BD40F2B0543F
:10334000C2F2010446F2AC21C0F601012046062279
:10335000642304F08FFA46F29061C0F60101204622
:1033600014224FF4967304F085FA45F60441C0F632
:10337000010120460222642304F07CFA0A2002F0B4
:103380003DFB40F2B054C2F2010446F2AC21C0F65B
:10339000010120460622642304F06CFA46F25A31F9
:1033A000C0F60101204624224FF4967304F062FA1D
:1033B00045F60441C0F6010120460222642304F0D0
:1033C00059FA0A2002F01AFB02F0F0FC00F1640541
:1033D00001AC00BF02F0EAFCA84207D2786821469F
:1033E0000122012304F02EF90028F3D040F6C0207A
:1033F000C2F201004FF40061FDF71EFC46F22050BE
:10340000C0F6010082A140F6B83201F055F898B339
:1034100040F6C025C2F201052846FDF787FB4FF6AE
:1034200080717F26084208BF86B220462946324670
:10343000FDF729FC0020A05577A12046FDF738FBB9
:1034400028B977A101A8FDF733FB002878D040F216
:10345000B054C2F2010446F2AC21C0F6010120468C
:103460000622642304F006FA46F62E11C0F6010186
:103470002046232213E000BF40F2B054C2F2010400
:1034800046F2AC21C0F6010120460622642304F076
:10349000F1F946F22F71C0F60101204612224FF4D5
:1034A000967304F0E7F945F60441C0F601012046A1
:1034B0000222642304F0DEF90A2002F09FFA40F2AF
:1034C000B054C2F2010446F2AC21C0F6010120461C
:1034D0000622642304F0CEF946F28671C0F601019B
:1034E000204612224FF4967304F0C4F945F60441C5
:1034F000C0F6010120460222642304F0BBF90A2031
:1035000002F07CFA0020787021B0F0BD2DA101A856
:10351000FDF7CEFA00283FF4DAAE40F2B0540120B5
:10352000C2F2010446F2AC217870C0F601012046D7
:103530000622642304F09EF926A120461F2214E0EF
:1035400040F2B0540120C2F2010446F2AC2178707E
:10355000C0F6010120460622642304F08BF946F2EE
:103560003161C0F6010120461D224FF4967304F02C
:1035700081F945F60441C0F6010120460222642388
:1035800004F078F90A2002F039FA012021B0F0BDE8
:10359000436865636B696E67205769466920737479
:1035A00061747573207573696E672049502061647A
:1035B00064726573732E2E2E00000000302E302EA4
:1035C000302E30002B43494653523A535441495010
:1035D000000000005769466920636F6E6E65637472
:1035E0006564202D2056616C696420495020666F07
:1035F000756E64004E6F2076616C696420495020BE
:103600006164647265737320666F756E6400000098
:103610002B43574A41503A004E6F20415000000062
:103620004552524F5200000040F26810C2F20000B2
:103630000078002804BF0020704746F25C5046F234
:103640006D51C0F60100C0F601014FF47A7200F02E
:1036500033BF00002DE9F047B0B005466C468946FF
:1036600071A120462A46FCF717FF40F2B05646F2F9
:10367000AC27C2F20106C0F60107304639460622E1
:10368000642304F0F7F82046FDF750FA82B2304682
:1036900021464FF4967304F0EDF845F60441C0F668
:1036A000010130460222642304F0E4F80A2002F00B
:1036B000A5F940F2681AC2F2000A9AF800403046B2
:1036C00039460622642304F0D5F8002C72D040F26B
:1036D000B056C2F2010659A1304622224FF4967329
:1036E00004F0C8F845F60448C0F6010830464146E3
:1036F0000222642304F0BEF80A2002F07FF946F2A9
:10370000705046F26D51C0F60100C0F601014FF451
:103710007A7200F0D1FEC82002F070F910AF50A10B
:1037200038462A464B46FCF7B7FE46F2AC24C0F6B4
:103730000104304621460622642304F09BF84DA183
:1037400030461F224FF4967304F094F830464146F9
:103750000222642304F08EF80A2002F04FF94DA1F2
:10376000384644F6206200F0A7FE05463046214662
:103770000622642304F07EF840F2B054C2F2010441
:10378000B5B347A120461A224FF4967304F072F89D
:1037900045F60441C0F6010120460222642304F0EC
:1037A00069F80A2002F02AF901208AF8010030B0F5
:1037B000BDE8F08740F2B054C2F2010446F2AB71AA
:1037C000C0F60101204617224FF4967304F052F818
:1037D00045F60441C0F6010120460222642304F0AC
:1037E00049F80A2002F00AF9002030B0BDE8F0875D
:1037F00046F2F961C0F60101204616224FF4967395
:1038000004F038F845F60441C0F6010120460222D2
:10381000642304F02FF80A2002F0F0F800208AF860
:10382000010030B0BDE8F087436F6E6E6563746968
:103830006E6720746F202573000000004469736375
:103840006F6E6E656374696E672066726F6D20615E
:103850006E79206578697374696E67204150000045
:1038600041542B43574A41503D222573222C222597
:103870007322000053656E64696E6720576946695C
:1038800020636F6E6E656374696F6E20636F6D6D1C
:10389000616E64005749464920474F542049500003
:1038A0005769466920636F6E6E656374696F6E2039
:1038B0007375636365737366756C0000F0B5A1B0D2
:1038C00040F26812C2F2000213781BB3054650782A
:1038D00000B346F26D5646F25C50C0F601060C4647
:1038E000C0F6010031464FF47A7200F0E5FD642025
:1038F00002F084F801AF1AA138462A462346FCF7A5
:10390000CBFD3846314641F2883200F0D5FD21B07A
:10391000F0BD00BF40F2B054C2F2010446F2AC2147
:10392000C0F6010120460622642303F0A3FF46F2FD
:103930006171C0F60101204624224FF4967303F012
:1039400099FF45F60441C0F6010120460222642396
:1039500003F090FF0A2002F051F8002021B0F0BDE2
:1039600041542B43495053544152543D22544350E7
:10397000222C222573222C25640000002DE9F04121
:1039800082B040F26816C2F2000632780446002A7D
:103990004FF0000055D07278002A52D0884602F0CD
:1039A00005FA00F164070DF1070500BF02F0FEF90A
:1039B000B84207D2706829460122012303F042FE73
:1039C0000028F3D040F6C020C2F201004FF400619D
:1039D000FDF732F946F2795046F26D51C0F601001A
:1039E000C0F601014FF4FA6200F066FDF0B140F656
:1039F000C020C2F2010014A1FDF75AF8B0B100F1E5
:103A00000E0528462221FDF749F878B1401B86B201
:103A100046450BD2204629463246FDF734F90020B0
:103A2000A055012002B0BDE8F08100BF42F6306031
:103A3000C0F23000606042F63060C2F63060206054
:103A4000002002B0BDE8F0812B43494653523A535F
:103A5000544149502C22000040F26811C2F200018A
:103A6000087800284FF000003ED04978E1B370B5E7
:103A7000A0B06C4620468021FDF7DEF846F22050CB
:103A800046F26D51C0F60100C0F6010140F6B832B1
:103A900000F012FD20B340F6C025C2F20105284611
:103AA000FDF744F84FF680717F26084208BF86B2C2
:103AB000204629463246FDF7E6F80020A0550BA126
:103AC0002046FCF7F5FF58B10130FCF7D3FF41B2B7
:103AD000013911F1650F38BF6FF02C0001E000BF14
:103AE000D32020B0BDE8704040B270472C2D0000BC
:103AF0002DE9F04196B040F2681840F2B054C2F29D
:103B00000008C2F2010446F2AC21C8F80400C0F675
:103B1000010120460622642303F0ACFE0FF29C5103
:103B2000204617224FF4967303F0A4FE45F6044195
:103B3000C0F6010120460222642303F09BFE0A2006
:103B400001F05CFF02F032F900F1640501AC00BF46
:103B500002F02CF9A84208D2D8F80400214601222C
:103B6000012303F06FFD0028F2D040F6C020C2F21E
:103B700001004FF40061FDF75FF84FF47A7001F037
:103B80003DFF46F28550C0F6010000214FF47A72E5
:103B900000F092FC40F2B05446F2AC25C2F20104AF
:103BA000C0F60105204629460622642303F062FE82
:103BB0000FF22051204612224FF4967303F05AFE62
:103BC00045F60446C0F6010620463146022264232B
:103BD00003F050FE0A2001F011FF40F6B83001F06A
:103BE0000DFF46F2E95101AFC0F60101384601224E
:103BF000FCF752FC204629460622642303F03AFED5
:103C00003846FCF793FF82B2204639464FF496734C
:103C100003F030FE204631460222642303F02AFEE0
:103C20000A2001F0EBFE46F2825046F26D51C0F6DA
:103C30000100C0F601014FF47A7200F03DFC00284B
:103C400040F0FA804FF4FA7001F0D8FE46F2E951E4
:103C500001ACC0F6010120460222FCF71DFC40F237
:103C6000B055C2F2010546F2AC21C0F6010128466A
:103C70000622642303F0FEFD2046FCF757FF82B2C4
:103C8000284621464FF4967303F0F4FD45F60441AF
:103C9000C0F6010128460222642303F0EBFD0A204E
:103CA00001F0ACFE46F2825046F26D51C0F60100C2
:103CB000C0F601014FF47A7200F0FEFB002840F0DC
:103CC000BB804FF4FA7001F099FE46F2E95101AC65
:103CD000C0F6010120460322FCF7DEFB40F2B0559E
:103CE000C2F2010546F2AC21C0F6010128460622C7
:103CF000642303F0BFFD2046FCF718FF82B228467C
:103D000021464FF4967303F0B5FD45F60441C0F625
:103D1000010128460222642303F0ACFD0A2001F0D1
:103D20006DFE46F2825046F26D51C0F60100C0F6BB
:103D300001014FF47A7200F0BFFB00287CD14FF4F0
:103D4000FA7001F05BFE46F2E95101ACC0F60101E8
:103D500020460422FCF7A0FB40F2B055C2F2010558
:103D600046F2AC21C0F6010128460622642303F086
:103D700081FD2046FCF7DAFE82B2284621464FF448
:103D8000967303F077FD45F60441C0F6010128461D
:103D90000222642303F06EFD0A2001F02FFE46F29A
:103DA000825046F26D51C0F60100C0F601014FF499
:103DB0007A7200F081FB00283ED14FF4FA7001F0D6
:103DC0001DFE46F2E95101ACC0F601012046052274
:103DD000FCF762FB40F2B055C2F2010546F2AC219D
:103DE000C0F6010128460622642303F043FD204665
:103DF000FCF79CFE82B2284621464FF4967303F0EE
:103E000039FD45F60441C0F601012846022264232B
:103E100003F030FD0A2001F0F1FD46F2825046F237
:103E20006D51C0F60100C0F601014FF47A7200F046
:103E300043FB002800F02A8140F2B05446F2AC2542
:103E4000C2F20104C0F60105204629460622642379
:103E500003F010FDA4A1204621224FF4967303F035
:103E600009FD45F60446C0F6010620463146022209
:103E7000642303F0FFFC0A2001F0C0FD2046294620
:103E80000622642303F0F6FCA0A1204614224FF47E
:103E9000967303F0EFFC204631460222642303F0C0
:103EA000E9FC0A2001F0AAFD46F2246111AEC0F639
:103EB000010130460122FCF7EFFA46F26D51C0F6DF
:103EC000010130464FF47A7200F0F6FA06462046B9
:103ED00029460622642303F0CDFC002E70D040F268
:103EE000B054C2F201048FA120461E224FF49673F3
:103EF00003F0C0FC45F60441C0F601012046022251
:103F0000642303F0B7FC0A2001F078FD46F261401B
:103F100046F26D51C0F60100C0F601014FF47A720D
:103F200000F0CAFA002855D046F26D5446F25140CE
:103F3000C0F60104C0F6010021464FF47A7200F089
:103F4000BBFA40F2B05546F2AC26C2F20105C0F60B
:103F50000106284631460622642303F08BFC46F214
:103F6000F331C0F60101284617224FF4967303F08F
:103F700081FC45F60441C0F6010128460222642373
:103F800003F078FC0A2001F039FD46F24040C0F60B
:103F9000010021464FF47A7200F08EFA044628465A
:103FA00031460622642303F065FC40F2B050C2F2B1
:103FB00001004CB346F26A61C0F60101252228E0F7
:103FC00040F2B05046F62D01C2F20100C0F60101E8
:103FD0001A2212E040F2B054C2F2010446F2AC21BF
:103FE000C0F6010120460622642303F043FC46F696
:103FF0004801C0F60101204624224FF4967303F0D5
:1040000039FC00242DE000BF46F2A561C0F6010195
:1040100036224FF4967303F02DFC40F2B054C2F2F6
:10402000010445F60441C0F6010120460222642342
:1040300003F020FC0A2001F0E1FC46F2AC21C0F6BE
:10404000010120460622642303F014FC46F6880191
:10405000C0F6010120461F224FF4967303F00AFCBC
:10406000012440F2B05045F60441C2F20100C0F60E
:1040700001010222642303F0FDFB0A2001F0BEFCD3
:10408000204688F8004016B0BDE8F0814FF4FA7081
:1040900001F0B4FC40F2B054C2F2010446F2AC218B
:1040A000C0F6010120460622642303F0E3FB46F23A
:1040B000DC61C0F6010120461C229EE7496E69744E
:1040C00069616C697A696E672045535038323636BB
:1040D0002E2E2E00455350383236362072657365C9
:1040E000742073656E7400004553503832363620A4
:1040F000636F6D6D756E69636174696F6E20657352
:104100007461626C6973686564000000536574745F
:10411000696E672053746174696F6E206D6F64659A
:104120000000000053657474696E672073696E67E0
:104130006C6520636F6E6E656374696F6E206D6F62
:10414000646500002DE9F04782B014460D468046B4
:1041500001F02CFE074601F029FEC01BA0424FF0E3
:10416000000020D2FDB140F2681A0026C2F2000A17
:104170000DF1070907E000BF01F018FEC01BA042C7
:1041800038BFAE420ED2DAF80400494601220A23B3
:1041900003F058FA0028EFD19DF8070008F8060050
:1041A0000136E9E7F0B202B0BDE8F08770B540F241
:1041B000B05446F2AC25C2F20104C0F60105204617
:1041C00029460622642303F055FB9DA120461222B6
:1041D0004FF4967303F04EFB45F60441C0F601011F
:1041E00020460222642303F045FB0A2001F006FC6E
:1041F00046F28550C0F6010000214FF47A7200F0BB
:104200005BF90646204629460622642303F032FB6A
:10421000002E00F0DF8040F2B054C2F201048DA104
:10422000204621224FF4967303F024FB45F6044107
:10423000C0F6010120460222642303F01BFB0A2082
:1042400001F0DCFB4FF4FA6001F0D8FB46F282503B
:1042500046F26D51C0F60100C0F601014FF47A72CA
:1042600000F02AF9002840F09F804FF4FA7001F026
:10427000C5FB46F2825046F26D51C0F60100C0F611
:1042800001014FF47A7200F017F9002840F08C8099
:104290004FF4FA7001F0B2FB46F2825046F26D51D3
:1042A000C0F60100C0F601014FF47A7200F004F983
:1042B000002879D14FF4FA7001F0A0FB46F2825049
:1042C00046F26D51C0F60100C0F601014FF47A725A
:1042D00000F0F2F8002867D14FF4FA7001F08EFB7D
:1042E00046F2825046F26D51C0F60100C0F601015F
:1042F0004FF47A7200F0E0F8002855D14FF4FA70CC
:1043000001F07CFB46F2825046F26D51C0F601008E
:10431000C0F601014FF47A7200F0CEF8002843D1C4
:104320004FF4FA7001F06AFB46F2825046F26D518A
:10433000C0F60100C0F601014FF47A7200F0BCF83B
:1043400090BB4FF4FA7001F059FB46F2825046F2EE
:104350006D51C0F60100C0F601014FF47A7200F011
:10436000ABF808BB4FF4FA7001F048FB46F28250FC
:1043700046F26D51C0F60100C0F601014FF47A72A9
:1043800000F09AF880B94FF4FA7001F037FB46F26A
:10439000825046F26D51C0F60100C0F601014FF4A3
:1043A0007A7200F089F8A8B340F2B054C2F2010466
:1043B00046F2AC21C0F6010120460622642303F038
:1043C00059FA2DA120461E224FF4967303F052FA9B
:1043D00001240DE040F2B05046F2C371C2F2010078
:1043E000C0F601011E224FF4967303F043FA002435
:1043F00040F2B05045F60441C2F20100C0F601019E
:104400000222642303F036FA0A2001F0F7FA20466C
:1044100070BD00BF4FF4FA7001F0F0FA40F2B054F2
:10442000C2F2010446F2AC21C0F601012046062288
:10443000642303F01FFA18A120461C22D3E700BF13
:1044400052657374617274696E67204553503832D7
:104450003636000057616974696E6720666F722096
:104460004553503832363620746F2072657374614C
:1044700072742E2E2E0000004553503832363620EE
:1044800072657374617274656420737563636573B8
:104490007366756C6C79000045535038323636209F
:1044A0007265737461727420636865636B20666102
:1044B000696C6564000000002DE9F04F81B014467E
:1044C0008946824601F072FC40F2681500F16406EC
:1044D000C2F200050DF1030701F068FCB04207D2FB
:1044E000686839460122012303F0ACF80028F3D0B4
:1044F00040F6C028C2F2010840464FF40061FCF7C4
:104500009BFB6F685046FCF711FB82B23846514660
:104510004FF4FA7303F0AEF9686845F60441C0F64B
:1045200001010222642303F0A5F9B9F1000F2FD095
:1045300001F03CFC074601F039FCC01BA0422FD221
:104540000DF1020640F2FE7B4FF0000A0CE000BFC6
:1045500040464946FCF7ACFA002840F0878001F05D
:1045600025FCC01BA0424FD26868314601220A23B5
:1045700003F068F80028F2D1DA45E9D89DF8020086
:1045800008F80A000AF1010A002008F80A00DFE72B
:104590000124322001F032FA204601B0BDE8F08F4C
:1045A0000126B4F57A7F35D940F2B05446F2AC25F5
:1045B000C2F20104C0F60105204629460622642302
:1045C00003F058F92CA120461A224FF4967303F0F9
:1045D00051F945F60441C0F6010120460222642348
:1045E00003F048F90A2001F009FA2046294606227C
:1045F000642303F03FF99EB140F2B050C2F20100D3
:1046000024A1092219E000BFBAFA8AF04609B4F5DC
:104610007A7FC9D80024204601B0BDE8F08F00BFE2
:1046200040F6C024C2F201042046FCF77FFA82B2B1
:1046300040F2B050C2F2010021464FF4967303F0ED
:1046400019F940F2B05045F60441C2F20100C0F63B
:1046500001010222642303F00DF900240A2001F075
:10466000CDF9204601B0BDE8F08F00BF01242046FF
:1046700001B0BDE8F08F00BF436F6D6D616E6420C7
:1046800074696D656F75742E205265636569766512
:10469000643A0000284E6F206461746129000000B4
:1046A0002DE9F04F99B040F26819C2F2000999F86B
:1046B0000020002A5ED0054699F80100002859D054
:1046C0000C4646F216610DF14408C0F60101404661
:1046D0002246FBF7E1FE01AF90A138462246FBF7E8
:1046E000DBFE40F2B056C2F2010646F2AC21C0F643
:1046F000010130460622642303F0BCF83846FCF77B
:1047000015FA82B2304639464FF4967303F0B2F888
:1047100045F60441C0F6010130460222642303F04D
:10472000A9F80A2001F06AF946F21E51C0F601010B
:10473000404641F28832FFF7BFFE002842D0D9F848
:1047400004002946224642F2107303F093F8002831
:1047500072D040F2B054C2F2010446F2AC21C0F66D
:10476000010120460622642303F084F872A120464A
:10477000132212E040F2B054C2F2010446F2AC211E
:10478000C0F6010120460622642303F073F846F2C6
:104790006171C0F60101204624224FF4967303F0A4
:1047A00069F845F60441C0F601012046022264235F
:1047B00003F060F80A2001F021F9002019B0BDE8EB
:1047C000F08F00BF40F2B05446F2AC26C2F20104B2
:1047D000C0F60106204631460622642303F04AF85B
:1047E00067A1204618224FF4967303F043F845F66C
:1047F0000445C0F60105204629460222642303F041
:1048000039F80A2001F0FAF82046314606226423DE
:1048100003F030F840F6C026C2F201063046FCF73D
:1048200085F982B2204631464FF4967303F022F8A0
:1048300020462946BAE700BF01F0B8FA044601F065
:10484000B5FA001B42F20F71884211D940F2B05400
:10485000C2F2010446F2AC21C0F601012046062254
:10486000642303F007F83FA120461B2295E700BF11
:1048700040F6C02646F2685B0DF1030540F2FE7A71
:10488000C2F20106C0F6010B42F210774FF00008A9
:104890000AE000BF30465946FCF70AF9D0B901F0EA
:1048A00085FA001BB842D1D2D9F80400294601226A
:1048B0000A2302F0C7FE0028F1D1D045EAD89DF8BE
:1048C000030006F8080008F10108002006F80800B7
:1048D000E0E700BF40F2B054C2F2010446F2AC215E
:1048E000C0F6010120460622642302F0C3FF17A18F
:1048F000204616224FF4967302F0BCFF45F60441A1
:10490000C0F6010120460222642302F0B3FF0A2010
:1049100001F074F8012019B0BDE8F08F53656E64A2
:10492000696E67202564206279746573206F662044
:1049300064617461000000004661696C6564207404
:104940006F2073656E6420646174610044617461FA
:104950002073656E74207375636365737366756C1D
:104960006C79000054696D656F75742077616974A6
:10497000696E6720666F722053454E44204F4B008E
:104980004661696C656420746F2067657420273EFA
:10499000272070726F6D707400000000B0B58EB08B
:1049A00045F6C461C0F6010102A80EF01DFA002808
:1049B00044D045F6C460C0F601000DF07DFA04460F
:1049C00000250A204FF48771DC220A2300950AF0A3
:1049D000A9F94FF0010C002C07BF46F21A24C0F6CB
:1049E000010446F23324C0F601040A204FF4877113
:1049F00022464FF6E073CDE9005C0AF067FD40F215
:104A00008815C2F2010545F6FB31C0F601012846C2
:104A10002246FBF741FD2846FCF788F882B240F2B7
:104A2000B050C2F2010029464FF4967302F022FF03
:104A3000142000F0E3FF0EB0B0BD00BF02A80DF0DF
:104A400093F80EB0B0BD000082B072B64FF478405B
:104A50004FF478450AF09CF945F62F420224C0F63F
:104A600001020A2078214FF6FF73CDE900540AF0C5
:104A70002DFD05206421FDF7C9FA40F6B83000F09D
:104A8000BDFF0CF049FD0000F0B581B001F08EF9DA
:104A900004464FF400704FF40077FBF72FFCE8B1A9
:104AA000064640F27010C2F2000000F108052846E8
:104AB00002210022334600970DF054FB0746304692
:104AC000FBF74BFC01F072F9001B42F210718842B7
:104AD00008D91520C0B201B0F0BD00BF1420C0B28B
:104AE00001B0F0BD27B107F11600C0B201B0F0BDB2
:104AF00040F21820C2F20100294600220DF01EFFEC
:104B0000002818BF3230C0B201B0F0BDB0B540F2DD
:104B10007015C2F20005287870B101F047F9696894
:104B2000401A41F2893188423CBF0120B0BDFF20CC
:104B300000212970B0BD00BF2F202881FDF726F984
:104B400001281CBF0A20B0BD05F1080440F23C005A
:104B5000C2F20000214600F019F80120287001F08F
:104B600025F9686040F21820C2F2010021460122B6
:104B70000DF0E4FE0D2805D00B2808BF65200021AC
:104B80002970B0BD652000212970B0BD40F2082316
:104B9000C2F201035A7A002A1CBF0120704780B577
:104BA00093F809C08646002003F80C005A7A03EBFC
:104BB0008202C2F804E05A7A1A44107293F809C0CB
:104BC0000CF101025A720CF130020A7042F63A728C
:104BD000A1F80120C87080BD10B5044600F0AAF805
:104BE00000210020E16384F8251084F8241010BD12
:104BF000704700007047000070B50446006842F638
:104C000079460569C0F6000669071FD4A8072BD4AA
:104C1000E80639D4280705D52068082141612046D7
:104C200000F0EAF9E80708BF70BD2168086880074E
:104C300003D5C86820F01E00C860C86820F00102D3
:104C40002046CA60BDE87040FFF7D4BF042141612F
:104C5000E06B40F00200E06384F82510A06B06656D
:104C600000F08EFCA807D3D521680222A06B4A6110
:104C7000E16B41F00101E163042184F82510066530
:104C800000F07EFCE806C5D5206810214161204671
:104C900000F048F82807BFD4C4E70000002804BF8C
:104CA00001207047F0B581B090F8251049B9002176
:104CB00080F82410044600F06DF8204600F06AF8F1
:104CC0002046022180F8251090E8065040F6F8743E
:104CD0000B68102A23EA04030B60D0E904438569BA
:104CE00043EA0E0343EA0403066A43EA0C030F682F
:104CF00043EA050343EA060343EA070343EA0203E0
:104D00000B6004BFC2698A61CA6842F01E02CA60B1
:104D100000210122C16380F8252001B0BDE8F040E8
:104D20000846704740F22010C2F2000001780131BD
:104D300001707047B0B5044600680021C5F2050156
:104D4000884218BFB0BD43F63400C4F202000168C7
:104D5000002521F00101C4F20205016005F5805033
:104D6000732100F05FFE2846502100F05BFE05F540
:104D70000060C02100F056FE05F58060C02100F003
:104D800051FEA06B00F00EFC4E20BDE8B04001F0DB
:104D90007FB800002DE9F04786B004460068002186
:104DA000C5F2050100278842CDE90477CDE90277F5
:104DB000019703D006B0BDE8F08700BF43F630008E
:104DC0000097C4F202004168002541F001014160F2
:104DD0004168C4F2020501F00101009100990097B9
:104DE000016801AE41F01001016001684FF0020856
:104DF00001F0100100910099009701684FF00D0932
:104E000041F001010160016801F001010091009988
:104E10000097016841F004010160016801F004019C
:104E2000009100990097016841F00201016000685B
:104E3000314600F00200009000987320019005F5C3
:104E40008050CDE902870497CDF8149000F0D2FE8F
:104E50005020CDE9010828463146CDE90377CDF849
:104E6000149000F0C7FE4FF0C00A05F5006031460F
:104E7000CDE901A8CDE90377CDF8149000F0BAFE92
:104E800005F580603146CDE901A8CDE90377CDF87D
:104E9000149000F0AFFE40F2484546F22840C2F2BE
:104EA0000105C4F202004FF000714FF4805385E811
:104EB000830005F114004FF480624FF48046C8C0AF
:104EC0002846C5E90372C5E9087700F093FC00287D
:104ED00018BFFFF7B9FD4E2003210022A563AC6384
:104EE00000F0FEFF4E2000F0E9FF06B0BDE8F087BD
:104EF00070B582B0044690F8240001284FF00200FB
:104F000078D04FF0010E84F824E084F82500D4F81E
:104F100000C0A06BDCF80050002645F48045CCF8BA
:104F20000050DCF80050B6EB134F25F00205CCF82A
:104F30000050DCF8005041EA0501CCF8001042F6C0
:104F40008D4142F67945C0F60001C0F60005C16307
:104F5000C0E91356A662266304D10CF1280100F0C3
:104F6000FBFC3FE04164C4F828E0E3626263E16A6D
:104F7000B1F5803F28D30021E36A5B08E362A36AAE
:104F80005B00A362E36AB3F5803F1DD3E36A5B086D
:104F9000E362A36A5B00A362E36AB3F5803F13D3C5
:104FA000E36A5B08E362A36A5B00A362E36AB3F5AA
:104FB000803F09D3E36A5B08E362A36A5B00A362F4
:104FC000E36AB1EB134FD7D1A16A0239A162A16A9A
:104FD0002163E16AE66A02EB81030CF12801009685
:104FE00000F01CF82068016841F001010160002018
:104FF00084F8240002B070BD41F20410C2F2000037
:105000000168013101607047D0F800C01023002012
:10501000002A08BF0C234CF80310704770B5856850
:10502000802D05D14FF480714165012070BD00BF16
:10503000C46B002C50D0446C002C4DD0C46C002CA0
:105040004AD090F83440012C4DD0012480F83440EF
:1050500090F83540012C43D1022480F835400024DB
:105060004465D0F800C0049CDCF8006046F20C4EA9
:1050700046F48026C4F2020ECCF80060CCF8103062
:105080000B46CCF80440402D04BF13460A460EF1EF
:105090004C018C45CCF80830CCF80C2026D946F2CF
:1050A0008841C4F202018C4564D046F27041C4F2DA
:1050B00002018C4572D12021CEF800101021CEF8CB
:1050C00000100821CEF800100421CEF800100121B4
:1050D000CEF80010EEE100BF40214165012070BD17
:1050E000002180F83410022070BD00BF46F2080194
:1050F000C4F2020101F1B002944519D946F21043FD
:10510000C4F2020346F228429C45C4F2020200F0B7
:105110008780944500F0808046F24046C4F2020643
:10512000B4450CBF4FF400144FF0006479E000BFA9
:1051300001F1500246F2100E46F270039445C4F29B
:10514000020EC4F2020353D99C4500F0CF8046F210
:105150008804C4F20204A44500F0C08046F2A00412
:10516000C4F20204A4450CBF4FF400144FF00064D5
:105170004C60C1E04FF40061CEF800104FF4806144
:10518000CEF800104FF40071CEF800104FF480718B
:10519000CEF800104021CEF800108BE10EF1940102
:1051A0004FF000628C4508BF4FF40012CEF800208B
:1051B0004FF0806208BF4FF48012CEF800204FF00D
:1051C00000728C4508BF4FF40022CEF800204FF04B
:1051D000807208BF4FF48022CEF800204FF4800286
:1051E0008C4508BF4FF48032CEF8002062E100BF4A
:1051F000F44500F07F8046F22804C4F20204A4457E
:1052000070D046F24004C4F20204A4450CBF4FF42F
:1052100000144FF000646EE04FF4006401E000BF42
:1052200020249C45C1F8004410D094450AD046F291
:105230004046C4F20206B4450CBF4FF480144FF050
:10524000806404E04FF4806401E000BF10249C45BA
:10525000C1F8004410D094450AD046F24046C4F24A
:105260000206B4450CBF4FF400244FF0007404E074
:105270004FF4007401E000BF08249C45C1F80044CD
:1052800010D094450AD046F24046C4F20206B44516
:105290000CBF4FF480244FF0807404E04FF480740E
:1052A00001E000BF04249C45C1F8004412D094459D
:1052B0000CD046F24042C4F2020294450CBF4FF4B7
:1052C00080324FF48002C1F80024F3E04022C1F89C
:1052D0000024EFE00122C1F80024EBE04FF4006469
:1052E0004C6009E04FF4006405E000BF20244C60EE
:1052F00002E000BF20240C60944513D99C452DD0BA
:1053000046F28804C4F20204A4451FD046F2A00469
:10531000C4F20204A4450CBF4FF480144FF0806423
:105320004C6021E0F4451DD046F22804C4F202048A
:10533000A4450FD046F24004C4F20204A4450CBFB9
:105340004FF480144FF080640DE000BF4FF4806490
:105350004C6009E04FF4806405E000BF10244C600D
:1053600002E000BF10240C60944513D99C452DD059
:1053700046F28804C4F20204A4451FD046F2A004F9
:10538000C4F20204A4450CBF4FF400244FF0007493
:105390004C6021E0F4451DD046F22804C4F202041A
:1053A000A4450FD046F24004C4F20204A4450CBF49
:1053B0004FF400244FF000740DE000BF4FF4007470
:1053C0004C6009E04FF4007405E000BF08244C6015
:1053D00002E000BF08240C60944513D99C452DD0F1
:1053E00046F28804C4F20204A4451FD046F2A00489
:1053F000C4F20204A4450CBF4FF480244FF0807423
:105400004C6021E0F4451DD046F22804C4F20204A9
:10541000A4450FD046F24004C4F20204A4450CBFD8
:105420004FF480244FF080740DE000BF4FF480747F
:105430004C6009E04FF4807405E000BF04244C6028
:1054400002E000BF04240C60944513D99C452BD086
:1054500046F28802C4F2020294451FD046F2A0022E
:10546000C4F2020294450CBF4FF480324FF4800224
:105470004A601FE0F4451BD046F22802C4F2020243
:1054800094450FD046F24002C4F2020294450CBF8C
:105490004FF480324FF480020BE000BF40224A609C
:1054A00008E000BF402204E001224A6002E000BFA1
:1054B00001220A60DCF8001041F01601CCF800105F
:1054C000DCF8141041F08001CCF81410016C09B91B
:1054D000806C28B1DCF8000040F00800CCF8000037
:1054E000DCF8000040F00100CCF80000002070BDA6
:1054F00070B5866D044600F059FC94F83510022909
:1055000028D105462068216C026822F0160202604C
:10551000426922F08002426109B9A16C19B10168A7
:1055200021F008010160016821F00101016000BF64
:1055300020680068C00715D000F038FC401B062822
:10554000F6D320206065032084F83500002184F81C
:10555000341070BD802060650120002184F8341073
:1055600070BD00BFE06D3F2101FA00F0B060012086
:1055700084F835000020002184F8341070BD00004C
:1055800090F83510022909D1052180F835100068FE
:10559000016821F001010160002070478021416510
:1055A00001207047002804BF0120704790F8351093
:1055B000022904BF02207047B0B501684AF6AB2249
:1055C00001F0F803D1F800C0A3F11005CAF6AA2231
:1055D000A5FB022E2CF001020A600022212345F6D1
:1055E000C8040A604A608A60CA600A614B614FEA77
:1055F0001E13C0F60104E35C40F2FF34A1435F2DAB
:105600004FF03F0588BF0431C0E9161305FA03F3D4
:10561000C0E90F22C0E91122C0E913228B60426564
:1056200080F8352080F834200020B0BD406D7047F0
:10563000F0B581B00021009140F23801C2F20001C2
:105640000B68D0E9166148F2B51537680822C1F633
:105650004E358A403A42A3FB05350CD003681C68DE
:10566000640708D51C6824F004041C60B260426D15
:1056700042F00102426501228A403A4208D00368A2
:105680005B691B0604D5B260426D42F002024265BE
:1056900004228A403A4208D003681B689B0704D55D
:1056A000B260426D42F00402426510228A403A42E2
:1056B00019D001680B681B0715D5B2600B680A6822
:1056C0005B0309D4D20509D40A6822F008020A60F3
:1056D000016C29B907E000BF110341D4016C11B17D
:1056E000044688472046C26D202101FA02F33B425E
:1056F00043D001680F68FF063FD5B36090F835705E
:105700000B68052F1CD123F016030B604B6923F0A7
:1057100080034B61036C0BB9836C1BB10B6823F0E6
:1057200008030B603F219140B160012180F83510E2
:10573000016D0022002980F8342054D158E000BFC8
:105740000A685B0310D4D20512D40A6822F0100252
:105750000A60012180F83510002180F8341007E03C
:10576000816C0029BCD1BEE7110301D4416C00E07B
:10577000C16B11B1044688472046416DC1B3416DEC
:10578000C9072ED0052180F835100168AA0A0B68D8
:1057900023F001030B60009B0133934200931AD85E
:1057A0000B68DB0717D0009B01339342009312D89C
:1057B0000B68DB070FD0009B0133934200930AD89C
:1057C0000B68DB0707D0009B01339342009302D89C
:1057D0000B68DB07DFD1012180F83510002180F84C
:1057E0003410C16C21B101B0BDE8F040084700BFE2
:1057F00001B0F0BD2DE9F041044600F0D7FAECB15C
:105800000546022084F835000020216884F8340021
:10581000086820F00100086021680868C00711D0FE
:1058200000F0C4FA401B0528F6D9032520230320E5
:10583000636584F83550BDE8F08100BF0120BDE804
:10584000F08100BF086848F23F02CFF21002D4E9AD
:10585000013500EA020C04F10C0898E8C10143EAA2
:105860000C032B431843D4E9072E3043384310432D
:10587000626A40EA0E00042A40EA08031CD1206B49
:10588000D4E90A2E40EA0E00184308604869BEF1C8
:10589000000F20F0030040EA020040F0040C11D099
:1058A000B8F5005F36D0B8F1000F45D1022A46D0D6
:1058B000012A3BD032B942E00B60486920F0070072
:1058C00040EA020C01F0F8004AF6AB221038CAF6A2
:1058D000AA22A0FB02231A0945F6C803C1F814C086
:1058E000C0F601039A5C40F2FF335F284FF03F009F
:1058F00021EA030100FA02F088BF0431C4E916125C
:105900008860002301250020636584F83550BDE8D8
:10591000F08100BF032AD5D8012540230120DFE80C
:1059200002F0030E030500BF82E700BFAEF1C070B6
:10593000B0FA80F0400904E0032A04D3C2D1CEF3C8
:1059400000600028BED0012540230120636584F853
:105950003550BDE8F081000090F834C0BCF1010F73
:1059600004BF0220704770B54FF0010C80F834C0BE
:10597000D0F858E090F835C0BCF1010F38D14FF0A5
:10598000020C80F835C04FF0000CC0F854C0D0F8BD
:1059900000C08468056CC06DDCF80060402C26F403
:1059A0008026CCF80060CCF804300B4604BF1346C8
:1059B0000A463F2101FA00F0CCF80830CCF80C2060
:1059C000CEF80800DCF8000040F01600CCF800002B
:1059D0002DB1DCF8000040F00800CCF80000DCF845
:1059E000000040F00100CCF80000002070BD00BFB6
:1059F000002180F83410022070BD0000B0B50446CC
:105A000000F0D4F9054640F22400C2F2000000780C
:105A1000611C18BF044400BF00F0C8F9401BA0423D
:105A2000FAD3B0BD2DE9F04F83B000F13E4241F60C
:105A30000047884602F1FF72C4F2020708214FEACC
:105A4000B223B84208BF072100F120070026042432
:105A50004FF002090197072B38BF4FEAB22102919C
:105A6000CDF8008026E000BF0168032202FA09F2A7
:105A7000914301606FF00303019D03EA560304F0B4
:105A80001C01EE580F2707FA01F126EA0101E9503F
:105A9000C1689143C160416821EA0C01416081689D
:105AA000914381600EF101060834102E09F10409BA
:105AB00000F09C80012101FA06FB1BEA080359D083
:105AC00043F60041C4F20101A4F1040CA1F57E7873
:105AD00026F003070CF0080E0F2158F8077001FAA2
